:100000000C9434000C9451000C9451000C94510049
:100010000C9451000C9451000C9451000C9451001C
:100020000C9451000C9451000C9451000C947904E0
:100030000C9451000C9451000C9451000C945100FC
:100040000C9451000C9451000C9451000C945100EC
:100050000C9451000C9451000C9451000C945100DC
:100060000C9451000C94510011241FBECFEFD4E02A
:10007000DEBFCDBF12E0A0E0B1E0E6E5F4E202C0F1
:1000800005900D92AA30B107D9F724E0AAE0B2E0BA
:1000900001C01D92AD3CB207E1F70E9498110C948B
:1000A00029120C94000025982D9A089583B185FBA0
:1000B000882780F991E089270895CF93DF93EC0199
:1000C0000E94B90A80910A0290910B02892B31F4A7
:1000D0008FE092E090930B0280930A0220910C0231
:1000E00030910D02C9018C0F9D1F873542E09407A6
:1000F00070F42817390758F4C0910A02D0910B0206
:10010000C20FD31F90930D0280930C0202C0C0E077
:10011000D0E00E94800BCE01DF91CF910895089529
:1001200010920D0210920C02089520910C02309151
:100130000D0287E592E0821B930B089580FF02C0B9
:100140005C9A01C05C9881FF02C05D9A01C05D9815
:1001500082FF02C05E9A01C05E9883FF02C05F9A70
:1001600001C05F985B9A82E08A95F1F700C05B98C6
:100170008FE891E00197F1F700C000000895CF9358
:10018000C82F5A9882958F700E949E008C2F0E94D3
:100190009E00C150C23030F48FE99FE00197F1F723
:1001A00000C00000CF910895CF93C82F5A9A85952B
:1001B0008595859585950E949E008C2FCF910C94F6
:1001C0009E00CF93DF93EC018991882319F00E9460
:1001D000D400FACFDF91CF910895CF93C82F843602
:1001E00038F064E60E94E311805D0E94D40002C0F2
:1001F0008A3058F02AE08C2F622F0E94E3110E946F
:10020000E31180E3890F0E94D4008C2F6AE00E94E2
:10021000E31180E3890FCF910C94D40081E00C941A
:10022000BF008AB18C6F8AB92FE788E391E0215033
:1002300080409040E1F700C000005A9883E00E949F
:100240009E008FE097E20197F1F700C0000083E085
:100250000E949E008BE291E00197F1F700C0000040
:1002600083E00E949E0082E00E949E0088E20E943D
:10027000BF008CE00E94BF0086E00E94BF000C948B
:100280000E01813009F4605C862F80680C94BF00F9
:10029000209A0895289A08952898089595B181E0A4
:1002A000892785B90895FC010396928381832FEFF6
:1002B0003FEF3483238396838583908787831082DF
:1002C0000895FC01118610860895CF93DF939C0159
:1002D000FB01DC011196CD91DC911297D383C2838F
:1002E0008C819D81958384838C819D81DC01139613
:1002F0007C936E9312977D836C8331872087F901FD
:1003000080818F5F8083DF91CF9108950F931F933A
:10031000CF93DF938C01FB01808191818F3F2FEF81
:10032000920721F4E801AF81B8850EC0D801139679
:1003300012962D913C911397E901488159818417B8
:10034000950710F0D901F4CF12968D919C911397D7
:1003500093838283EC01FD83EC83B583A48313969E
:10036000FC93EE93129711870087F80180818F5FCD
:100370008083DF91CF911F910F910895CF93DF93E9
:10038000FC01A085B1858281938124813581EC01B6
:100390003D832C83C481D5819B838A8311968D9163
:1003A0009C911297E817F90721F41296DC93CE93EB
:1003B0001197118610868C9181508C93DF91CF918B
:1003C000089580E480937C0087E880937A00089504
:1003D00080917C00807E80937C0080917A00806494
:1003E00080937A0080917A0086FDFCCF209178007E
:1003F00030917900A4EFB1E00E941112DC01CB0131
:100400002AE0B695A795979587952A95D1F70895EF
:10041000CF93DF931F92CDB7DEB710E0FF24F394A4
:100420000E945600082F882309F443C0111141C0CF
:10043000809166048F258093660420E04FEF5FEF84
:1004400060E070E080916704909168040E94B206B9
:100450008130B1F480916604882319F082E091E044
:1004600002C08CE291E00E946B1120E040E050E07D
:1004700060E070E080916704909168040E949905A3
:1004800080916604882311F0198207C00E94E80158
:1004900091E08A3108F490E0998322E040E050E056
:1004A000BE016F5F7F4F8091690490916A040E9442
:1004B000990582E390E00E942C0C102FB1CFCF93CE
:1004C000DF931F92CDB7DEB701E00E94E801182F3D
:1004D00020E04FEF5FEF60E070E080916704909163
:1004E00068040E94B2068130A1F587E591E00E9480
:1004F0006B11812F0E9477118FE591E00E946B11A3
:1005000060E080E00E94410182E691E00E94E1000B
:10051000812F0E94ED0080916604882339F089E6DE
:1005200091E00E946B118DE791E002C083E891E0B9
:100530000E94E10085EF91E00E946B1120E040E015
:1005400050E060E070E080916704909168040E9440
:10055000990580916604811111C01A3110F0098348
:1005600001C0198222E040E050E0BE016F5F7F4F82
:100570008091690490916A040E94990589E290E053
:100580000E942C0CA2CFCF93DF931F92CDB7DEB782
:100590001FEF20E04FEF5FEFBE016F5F7F4F809155
:1005A000690490916A040E94B206813019F0812F8B
:1005B000182FEFCF89811817D9F3813019F40E94D1
:1005C000170302C00E941A0320E04FEF5FEF60E0C4
:1005D00070E080916704909168040E94B2068130B7
:1005E00001F560E00E9441018981813039F489E898
:1005F00091E00E946B1183EA91E006C084EB91E0E8
:100600000E946B1186EC91E00E94E10020E040E046
:1006100050E060E070E080916704909168040E946F
:1006200099058981C5CF84B18C6084B908952A9ACF
:100630002B9808952A982B98089531E1FC01308376
:10064000319722E220833197A3E3A083319760831F
:100650003197708331971082319760E860833197CA
:100660001082319762E06083319763E06083319755
:1006700064E06083319765E06083319766E0608372
:10068000319767E06083319768E06083319769E074
:100690006083319760E1608331973083319732E135
:1006A0003083319733E13083319734E130833197B0
:1006B00035E13083319736E13083319737E130834C
:1006C000319738E13083319739E13083319730E227
:1006D0003083319731E2308331972083319723E2A1
:1006E00020833197408331975083319726E22083CE
:1006F000319727E22083319728E22083319729E23E
:100700002083319720E32083319721E3208386974C
:100710000895109289008CE7809388008BE0809385
:100720008100EFE6F0E0808182608083A0916B041D
:10073000B0916C04CD91CDBFDD91DEBFFF91EF9103
:10074000DF91CF91BF91AF919F918F917F916F91E9
:100750005F914F913F912F911F910F91FF90EF90DB
:10076000DF90CF90BF90AF909F908F907F906F90D1
:100770005F904F903F902F901F900F900FBE0F9063
:10078000089581E0089508950F920FB6F8940F929E
:100790001F9211242F923F924F925F926F927F92FD
:1007A0008F929F92AF92BF92CF92DF92EF92FF9281
:1007B0000F931F932F933F934F935F936F937F9369
:1007C0008F939F93AF93BF93CF93DF93EF93FF9359
:1007D000A0916B04B0916C040DB60D920EB60D9203
:1007E0000E94810CA0916B04B0916C04CD91CDBF9F
:1007F000DD91DEBFFF91EF91DF91CF91BF91AF917E
:100800009F918F917F916F915F914F913F912F9128
:100810001F910F91FF90EF90DF90CF90BF90AF901E
:100820009F908F907F906F905F904F903F902F9010
:100830001F900F900FBE0F9008950F920FB6F8946F
:100840000F921F9211242F923F924F925F926F92BC
:100850007F928F929F92AF92BF92CF92DF92EF9250
:10086000FF920F931F932F933F934F935F936F9339
:100870007F938F939F93AF93BF93CF93DF93EF9328
:10088000FF93A0916B04B0916C040DB60D920EB65F
:100890000D920E94D10A81110E94810CA0916B04DB
:1008A000B0916C04CD91CDBFDD91DEBFFF91EF9192
:1008B000DF91CF91BF91AF919F918F917F916F9178
:1008C0005F914F913F912F911F910F91FF90EF906A
:1008D000DF90CF90BF90AF909F908F907F906F9060
:1008E0005F904F903F902F901F900F900FBE0F90F2
:1008F00008950E941D0418951F93CF93DF93EC0178
:10090000142F4C8D41110CC088819981892B09F0DD
:1009100041C08A819B810E94910E1B821A823BC03A
:1009200050E0111115C08C819D810E9420122C8DE8
:100930008C819D81820F911D9D838C832A813B81B7
:100940008217930738F1888199819D838C8322C017
:100950008E819F810E9420128C8D90E091958195CF
:1009600091092E813F81280F391F3F832E834881B3
:1009700059812417350730F42A813B81820F931F58
:100980009F838E83123031F48A8D882319F08A8DEB
:1009900081508A8F80E09A8D9F5F9A8FDF91CF91EF
:1009A0001F910895FC01CB01448D4423A1F050E038
:1009B00026813781240F351F378326836281738117
:1009C0002617370720F020813181378326836681FF
:1009D00077810C94201208950F931F93CF93DF9388
:1009E000EC010FB6F8940F928C010F5E1F4F8E8DA5
:1009F00018166CF48989882351F0C8010E947E0D75
:100A000081110E942F0E8E8D81508E8FF0CF8FEF2F
:100A10008E8F0F900FBE0FB6F8940F928E01085F65
:100A20001F4F8D8D18166CF48885882351F0C801EE
:100A30000E947E0D81110E942F0E8D8D81508D8F11
:100A4000F0CF8FEF8D8F0F900FBEDF91CF911F9161
:100A50000F910895CF93DF93EC010FB6F8940F92A6
:100A6000288139819B8D4C8D949FC0011124F901FF
:100A7000E80FF91FFB83EA831A8E3D832C83841BC6
:100A80009109820F931F9F838E838FEF8D8F8E8F9F
:100A900061110CC08885882389F0CE0108960E94D8
:100AA0007E0D813059F40E94C40308C0CE0108961F
:100AB0000E945301CE0141960E9453010F900FBE38
:100AC00081E0DF91CF9108950F931F93CF93DF9330
:100AD000082F162F662329F0869FC0011124019646
:100AE00002C080E090E04F960E945D00EC0100970C
:100AF00071F0111103C09983888303C04F969983C5
:100B000088830B8F1C8F61E0CE010E942A05CE01E5
:100B1000DF91CF911F910F910895CF93C62F42E09F
:100B200060E00E946405009711F0FC01C28FCF9134
:100B30000895AF92BF92CF92DF92FF920F931F93CF
:100B4000CF93DF9300D000D01F92CDB7DEB78C01DA
:100B50006B015D834C83F22E80E0580198E0A90E72
:100B6000B11C0FB6F8940F92F801228D938D2917BE
:100B700018F0F2E0FF1218C04F2DB601C8010E9414
:100B80007C04F8019189992349F0C80141960E949B
:100B90007E0D813029F40E94C40302C08111FBCF75
:100BA0000F900FBE81E050C02C813D81232B19F4A2
:100BB0000F900FBE48C0811104C0CE0101960E9463
:100BC000F20D0F900FBE0E94B90A0FB6F8940F9263
:100BD000F801858D8F3F09F4158EF801868D8F3FC2
:100BE00009F4168E0F900FBEBE016C5F7F4FCE01D1
:100BF00001960E94FD0D811121C00FB6F8940F924D
:100C0000F801928D0F900FBE838D981311C06C81E7
:100C10007D81C5010E941F0DC8010E94EC040E9445
:100C2000800B882311F081E09CCF0E94C403FBCF8E
:100C3000C8010E94EC040E94800BF5CFC8010E94FD
:100C4000EC040E94800B80E00F900F900F900F90AB
:100C50000F90DF91CF911F910F91FF90DF90CF9078
:100C6000BF90AF900895CF93DF938FE190E00E9403
:100C70005D00EC01892BF9F01B821A82198218821F
:100C80001D821C821F821E821A8E81E08B8F1C8E19
:100C90008FEF8D8F8E8FCE0108960E945301CE016B
:100CA00041960E94530120E040E050E060E070E097
:100CB000CE010E949905CE01DF91CF9108950F9347
:100CC0001F93CF93DF93EC019A8D8B8D981710F0C3
:100CD0002230E9F48A01422FCE010E947C048E8DDD
:100CE0008F3F81F48989882381F0CE0141960E944B
:100CF0007E0D882351F00115110539F081E0F801CE
:100D0000808306C08E8D8F5F8E8F81E001C080E072
:100D1000DF91CF911F910F910895CF93DF93FC0145
:100D2000928D838D9817D0F4828D8F5F828F868D00
:100D30008F3F79F48189882379F0EB01CF014196C7
:100D40000E947E0D882341F0209731F081E0888356
:100D500006C0868D8F5F868F81E001C080E0DF91C5
:100D6000CF910895AF92BF92DF92EF92FF920F93CF
:100D70001F93CF93DF9300D000D01F92CDB7DEB783
:100D80008C017B015D834C83D22E80E0580191E180
:100D9000A90EB11C0FB6F8940F92F801928D992309
:100DA00089F1A680B780B701C8010E94D204F8017A
:100DB000D11019C0828D8150828F80819181892BC1
:100DC00029F40E94E20EF80193838283F801808562
:100DD0008823A1F0C80108960E947E0D813071F42D
:100DE0000E94C4030BC0B782A6828189882331F098
:100DF000C80141960E947E0D8111F2CF0F900FBE67
:100E000081E05CC02C813D81232B19F40F900FBE33
:100E100054C0811104C0CE0101960E94F20D0F90C2
:100E20000FBE0E94B90A0FB6F8940F92F801858D93
:100E30008F3F09F4158EF801868D8F3F09F4168EC9
:100E40000F900FBEBE016C5F7F4FCE0101960E94D6
:100E5000FD0D81112DC00FB6F8940F92F801828D0F
:100E60000F900FBE81111EC080819181892B49F4A2
:100E70000FB6F8940F92828193810E94380E0F90E2
:100E80000FBE6C817D81C5010E941F0DC8010E94AB
:100E9000EC040E94800B882311F081E07BCF0E943C
:100EA000C403FBCFC8010E94EC040E94800BF5CF65
:100EB000C8010E94EC040E94800B80E00F900F900C
:100EC0000F900F900F90DF91CF911F910F91FF9096
:100ED000EF90DF90BF90AF9008950F931F93CF9343
:100EE000DF93FC01228D2223F9F08A01EC010E949C
:100EF000D2048A8D81508A8F8D8D8F3F81F48885B1
:100F0000882381F0CE0108960E947E0D882351F03F
:100F10000115110539F081E0F801808306C08D8D3F
:100F20008F5F8D8F81E001C080E0DF91CF911F91B5
:100F30000F9108950F931F93CF93DF93FC01228DA0
:100F4000222349F0EC01068117810E94D2041F83FD
:100F50000E8381E001C080E0DF91CF911F910F915E
:100F600008950FB6F8940F92FC01828D0F900FBE7A
:100F700008950FB6F8940F92FC01228D0F900FBECA
:100F8000838D821B0895FC01828D08950C948F003F
:100F9000FC01928D81E0911180E00895FC01928D19
:100FA00081E0238D291380E00895E0919504F0916C
:100FB00096048081811103C08FEF9FEF0CC0E091F8
:100FC0009504F09196040580F681E02D0680F78166
:100FD000E02D828193819093010180930001089517
:100FE000CF93DF93E0916B04F0916C049383828341
:100FF00020917404309175048217930770F4609106
:101000006B0470916C0480919304909194046E5FD2
:101010007F4FDF91CF910C948601EC0160916B04BE
:1010200070916C0480919504909196046E5F7F4F4F
:101030000E9486018091000190910101C817D90793
:1010400020F4D0930101C0930001DF91CF91089566
:101050005F926F927F928F929F92AF92BF92CF9248
:10106000DF92EF92FF920F931F93CF93DF934C0188
:10107000162F572E5A013901C114D10439F4CA016F
:101080000E945D006C01892B09F4D3C089E290E0D5
:101090000E945D00EC01009779F0D88ECF8A21E0A4
:1010A000A21AB108CA0CDB1CBC01675E7F4FE12F9E
:1010B000F52DCF01089607C0C6010E948F00B9C068
:1010C000E817F90749F09F014191DB014D93BD01FC
:1010D000D9012C912111F4CF18A2102F043008F05F
:1010E00013E01E8B19A31AA25E01B2E0AB0EB11C75
:1010F000C5010E946101CE010C960E946101D98751
:10110000C88784E090E0811B91099D878C87DB8BE9
:10111000CA8B1BA21CA21DA21EA218A61FA2A3015D
:10112000B401C6010E941D0399838883E114F10470
:1011300019F0F701D183C0830FB6F8940F92809114
:1011400076048F5F8093760480916B0490916C0499
:10115000892BD1F5D0936C04C0936B0480917604F5
:10116000813009F040C089EA94E00E94530182EB8B
:1011700094E00E9453018BEB94E00E94530184ECB5
:1011800094E00E94530180EA94E00E94530187E9B1
:1011900094E00E9453018AE894E00E94530181E8A0
:1011A00094E00E94530187E794E00E94530180EA93
:1011B00094E0909396048093950487E994E090934B
:1011C0009404809393040FC08091720481110BC02A
:1011D000E0916B04F0916C048689081720F0D0939D
:1011E0006C04C0936B0480916E048F5F80936E04D7
:1011F0008E8990917304981710F480937304F9E02A
:101200008F9FC0011124B50187559B4F0E94650136
:101210000F900FBE80917204882349F0E0916B0417
:10122000F0916C048689801710F40E94C40381E059
:1012300001C08FEFDF91CF911F910F91FF90EF9041
:10124000DF90CF90BF90AF909F908F907F906F90E6
:101250005F9008950F931F93CF93DF93EC010FB628
:10126000F8940F92892B21F4C0916B04D0916C04F7
:101270008E010E5F1F4FC8010E94BE018C899D899F
:10128000892B21F0CE010C960E94BE01B80181E8A5
:1012900094E00E946501809180048F5F80938004B8
:1012A00080916E048F5F80936E040F900FBE8091CB
:1012B0007204882389F080916B0490916C04C817A4
:1012C000D90719F40E94C40307C00FB6F8940F920F
:1012D0000E94D5070F900FBEDF91CF911F910F9104
:1012E00008950FB6F8940F92009721F480916B0443
:1012F00090916C040F900FBEFC01868908950097B1
:1013000021F480916B0490916C04FC01868908950E
:10131000EF92FF921F93CF93DF93EC01643008F0BC
:1013200063E00FB6F8940F92209721F4C0916B04FC
:10133000D0916C0499A1961709F44CC020916B04CC
:1013400030916C04961760F4C217D30769F0E091EE
:101350006B04F0916C0411E08689681730F404C0C6
:1013600011E0C217D30709F010E08E89981301C06D
:101370006E8B69A32C853D8537FD06C024E030E0E7
:10138000261B31093D872C8729E0829FC00111244B
:1013900087559B4F2A853B8528173907B9F47E016D
:1013A00082E0E80EF11CC7010E94BE018E89909177
:1013B0007304981710F48093730429E0829FC0018E
:1013C0001124B70187559B4F0E946501113011F41C
:1013D0000E94C4030F900FBEDF91CF911F91FF9029
:1013E000EF9008950F931F93CF93DF93009709F425
:1013F0003CC020916B0430916C0482179307A9F1D3
:101400000FB6F8940F92FC0122853385275734409C
:1014100051F5FC0124893589F4E02A383F0719F198
:10142000232B09F5EC018C010E5F1F4FC8010E94B0
:10143000BE018E8990917304981710F48093730401
:1014400029E0829FC0011124B80187559B4F0E945B
:101450006501E0916B04F0916C049E898689981770
:1014600010F00E94C4030F900FBEDF91CF911F9127
:101470000F910895EF92FF921F93CF93DF93EC01AA
:101480008A859B858757944099F48C899D8924E0AF
:101490008A38920769F0892B59F480916D0488236A
:1014A00049F0BE01645F7F4F8AE894E00E946501C5
:1014B00010E021C0E0916B04F0916C0411E09E8972
:1014C0008689981708F410E07E0182E0E80EF11C8E
:1014D000C7010E94BE018E8990917304981710F481
:1014E0008093730429E0829FC0011124B7018755BE
:1014F0009B4F0E946501812FDF91CF911F91FF903B
:10150000EF900895AF92BF92CF92DF92EF92FF9249
:101510000F93A12CB12CC12CD12CE12CF12C00E08B
:1015200020E030E04CE350E065E072E08DE49CE0C8
:101530000E942808813081F4F894809372041092FC
:101540007504109274040F91FF90EF90DF90CF908C
:10155000BF90AF900C9489030F91FF90EF90DF90B4
:10156000CF90BF90AF900895F894109272040C94AD
:10157000C30380916D048F5F80936D0408950FB64F
:10158000F8940F9280917404909175040F900FBE9F
:101590000895809174049091750408958091760463
:1015A0000895CF92DF92EF92FF920F931F93CF9304
:1015B000DF9380916D0481118FC0809174049091AC
:1015C000750401969093750480937404E0907404FC
:1015D000F0907504E114F104B9F4809195049091B0
:1015E00096042091930430919404309396042093B0
:1015F0009504909394048093930480916F048F5F7B
:1016000080936F040E94D5078091000190910101A1
:10161000C0E0E816F90608F44FC0D9E0E09195045F
:10162000F09196048081811103C08FEF9FEF11C06C
:10163000E0919504F09196040580F681E02D0681F5
:101640001781D80112968D919C911397E816F9068F
:1016500028F490930101809300012EC06801B2E04C
:10166000CB0ED11CC6010E94BE01F8018489958968
:10167000892B21F0C8010C960E94BE01D801569614
:101680008C9190917304981710F480937304D89FF1
:10169000C0011124B60187559B4F0E946501E0915E
:1016A0006B04F0916C04D80156969C91868998172A
:1016B00008F4B4CFC1E0B2CFE0916B04F0916C04B8
:1016C000E689B9E0EB9FF0011124E755FB4F8081DB
:1016D000823040F0C1E006C0809171048F5F80933A
:1016E0007104C0E0809170048111C1E08C2FDF9102
:1016F000CF911F910F91FF90EF90DF90CF900895C1
:10170000EF92FF920F931F93CF93DF930FB6F8944E
:101710000F9280916D04815080936D0480916D04CF
:10172000882311F080E053C0809176048823D1F3A0
:1017300089E0F82EEE24E39480918A04882351F105
:10174000E0918F04F0919004C681D781CE010C9670
:101750000E94BE018E010E5F1F4FC8010E94BE0194
:101760008E8990917304981710F480937304F89EF7
:10177000C0011124B80187559B4F0E946501E0917B
:101780006B04F0916C049E8986899817A8F2E09208
:101790007004D2CF80917104811109C080917004CE
:1017A000813009F0BFCF0E94C40381E010C0C1E0C6
:1017B00080917104882391F30E94D10A8111C09312
:1017C000700480917104815080937104F1CF0F9067
:1017D0000FBEDF91CF911F910F91FF90EF90089571
:1017E0000F931F93CF93DF938C01EB010E94B90AF3
:1017F0002091740430917504F80180819181C80FA3
:10180000D91F2817390720F4C817D90740F403C097
:10181000C817D90730F081E02C173D0718F080E099
:1018200001C081E0F801D183C083882351F0809109
:101830006B0490916C0402960E94BE01CE010E943E
:10184000F0070E94800B811102C00E94C403DF9147
:10185000CF911F910F910895CF93DF93EC01892BC6
:1018600019F40E94C40316C00E94B90A809174043E
:1018700090917504C80FD91F80916B0490916C04EE
:1018800002960E94BE01CE010E94F0070E94800BCA
:10189000882339F3DF91CF910895809180048823C4
:1018A00049F10E94B90AC09181040E94800BCC23A7
:1018B000A1F30FB6F8940F92E0918604F09187049B
:1018C000C681D781CE0102960E94BE018091760426
:1018D00081508093760480918004815080938004AD
:1018E0000F900FBE8F89988D0E948F00CE010E94AD
:1018F0008F00D3CF8091A904823078F20E94C40374
:10190000CCCF80916D04882321F081E08093700416
:1019100008951092700499E0E09173049E9FF00185
:101920001124E755FB4F8081811106C0809173041B
:10193000815080937304F0CF8091730490E049E06C
:10194000489F9001499F300D1124F901E755FB4F45
:10195000A181B28112960D90BC91A02DB283A1837A
:1019600024553B4FA217B30731F412962D913C91A9
:1019700013973283218329E0289FF001299FF00DDE
:101980001124E755FB4F0180F281E02D868197817C
:1019900090936C0480936B0408950F931F93CF93DF
:1019A000DF93EC010FB6F8940F92892B21F4C091CC
:1019B0006B04D0916C048E010E5F1F4FC8010E9412
:1019C000BE018C899D89892B21F0CE010C960E9445
:1019D000BE01B80187E794E00E9465010F900FBE39
:1019E00080916B0490916C04C817D907C1F4809161
:1019F0007204882319F00E94C4031CC080917604ED
:101A000090917704981305C010926C0410926B04A7
:101A100011C0DF91CF911F910F910C94810C809197
:101A20007204882339F00FB6F8940F920E94D507FC
:101A30000F900FBEDF91CF911F910F910895CF931B
:101A4000DF93EB0160916B0470916C04645F7F4FD6
:101A50000E94860180916B0490916C0402960E9412
:101A6000BE01CF3F8FEFD80761F460916B04709196
:101A70006C046E5F7F4F87E794E0DF91CF910C9409
:101A8000650180917404909175048C0F9D1FDF9106
:101A9000CF910C94F007CF93DF93EA01E0916B04B0
:101AA000F0916C0470687587648760916B04709125
:101AB0006C04645F7F4F0E94650180916B0490917C
:101AC0006C0402960E94BE01CF3F8FEFD80761F4ED
:101AD00060916B0470916C046E5F7F4F87E794E0B8
:101AE000DF91CF910C9465018091740490917504FD
:101AF0008C0F9D1FDF91CF910C94F0070F931F93D4
:101B0000CF93DF93DC011596ED91FC911697C6817A
:101B1000D7818E01045F1F4FC8010E94BE018091D2
:101B20006D04811114C00A501109C8010E94BE0140
:101B30008E8990917304981710F480937304B9E020
:101B40008B9FC0011124B80187559B4F03C0B8017A
:101B50008AE894E00E946501E0916B04F0916C04C6
:101B60009E898689891720F481E08093700401C0E2
:101B700080E0DF91CF911F910F9108950F931F93F4
:101B8000CF93DF937068FC0171836083C681D78136
:101B90000E94BE018E010E5F1F4FC8010E94BE0150
:101BA0008E8990917304981710F480937304F9E070
:101BB0008F9FC0011124B80187559B4F0E9465017A
:101BC000E0916B04F0916C049E898689891720F45A
:101BD00081E08093700401C080E0DF91CF911F917C
:101BE0000F91089520916F04FC01208320917404CB
:101BF00030917504328321830895CF93DF930FB61C
:101C0000F8940F92E0917404F0917504DB012D912A
:101C10003C912F3FBFEF3B07D1F0A0916F04EC0147
:101C2000B88149815A81BA1719F0E417F50788F489
:101C3000DF01A41BB50BA217B30758F4DB014E1B41
:101C40005F0B240F351F2D933C930E94F20D80E013
:101C500001C081E00F900FBEDF91CF91089581E028
:101C600080937004089580916B0490916C040895A2
:101C70000F931F93CF93DF93FC01892B09F44CC082
:101C80008689A0916B04B0916C0456969C9189173B
:101C900008F042C02485358537FD0CC0A0916B0447
:101CA000B0916C0456969C9124E030E0291B3109D8
:101CB0003587248729E0829FC001112487559B4FD7
:101CC000228533852817390701F58F01EF01229608
:101CD000CE010E94BE01E0916B04F0916C048689F4
:101CE000F801868B90917304981710F48093730415
:101CF000F9E08F9FC0011124BE0187559B4FDF91F2
:101D0000CF911F910F910C946501A0916B04B0913C
:101D10006C0456968C91868BDF91CF911F910F9119
:101D200008950F931F93CF93DF93FC01892B11F438
:101D300080E02CC082A1815082A3268991A129171D
:101D4000B9F38111F5CFEF018F010E5F1F4FC8016D
:101D50000E94BE0189A18E8B482F50E024E030E024
:101D6000241B350B3D872C8790917304981710F432
:101D70008093730429E0249FC001259F900D1124B6
:101D8000B80187559B4F0E94650181E0DF91CF919B
:101D90001F910F910895E0916B04F0916C0484857C
:101DA0009585E0916B04F0916C04A0916B04B09167
:101DB0006C0456964C9124E030E0241B31093587A1
:101DC0002487089580916B0490916C04892B39F0DD
:101DD000E0916B04F0916C0482A18F5F82A38091EB
:101DE0006B0490916C0408950F931F93CF93DF932E
:101DF000182FEB010FB6F8940F92E0916B04F0915D
:101E00006C0483A194A1A5A1B6A1892B8A2B8B2B4D
:101E100051F5E0916B04F0916C0481E090E090A7A3
:101E200087A3209701F180916B0490916C04029636
:101E30000E94BE01CF3F8FEFD80759F460916B0429
:101E400070916C046E5F7F4F87E794E00E9465019C
:101E500008C080917404909175048C0F9D1F0E949E
:101E6000F0070E94C4030F900FBE0FB6F8940F92B4
:101E7000E0916B04F0916C0463A174A185A196A11B
:101E80006115710581059105B9F0E0916B04F09140
:101E90006C04112329F013A214A215A216A20CC0DF
:101EA00003A114A125A136A101501109210931096D
:101EB00003A314A325A336A3E0916B04F0916C0453
:101EC00010A617A20F900FBEDF91CF911F910F9117
:101ED00008954F925F926F927F928F929F92AF92EE
:101EE000BF92EF92FF920F931F9349015A010FB6D1
:101EF000F8940F92E0916B04F0916C0427A130A547
:101F00002230310509F443C0E0916B04F0916C0478
:101F100023A134A145A156A12B013C01409450942A
:101F200060947094D301C20182239323A423B52328
:101F300083A394A3A5A3B6A3E0916B04F0916C04D2
:101F400081E090E090A787A3E114F10401F1809172
:101F50006B0490916C0402960E94BE018FEFE8160C
:101F6000F80659F460916B0470916C046E5F7F4FBA
:101F700087E794E00E94650108C080917404909105
:101F800075048E0D9F1D0E94F0070E94C4030F90E0
:101F90000FBE0FB6F8940F920115110569F0E0918C
:101FA0006B04F0916C0483A194A1A5A1B6A1F801E2
:101FB00080839183A283B383E0916B04F0916C04DE
:101FC00087A190A50197C1F0E0916B04F0916C049A
:101FD00043A154A165A176A1D501C4018095909536
:101FE000A095B09584239523A623B72383A394A318
:101FF000A5A3B6A381E001C080E0E0916B04F0915D
:102000006C0410A617A20F900FBE1F910F91FF90A6
:10201000EF90BF90AF909F908F907F906F905F9068
:102020004F9008950F931F93CF93DF93FC010FB64A
:10203000F8940F920115110549F083A194A1A5A16F
:10204000B6A1E80188839983AA83BB8387A190A561
:10205000A2E0B0E0B0A7A7A322303105A1F060F460
:102060002130310501F503A114A125A136A1402B92
:10207000512B622B732B13C02330310581F0243098
:10208000310551F010C043A154A165A176A14F5F65
:102090005F4F6F4F7F4F03C08230910549F143A3DB
:1020A00054A365A376A3019709F5EF018F010E5F95
:1020B0001F4FC8010E94BE018E899091730498172A
:1020C00010F48093730429E0829FC0011124B801A9
:1020D00087559B4F0E946501E0916B04F0916C0461
:1020E0009E898689891710F40E94C40381E001C08B
:1020F00080E00F900FBEDF91CF911F910F91089557
:10210000CF92DF92EF92FF920F931F93CF93DF93C3
:10211000FC0187A190A5A2E0B0E0B0A7A7A3223060
:102120003105A1F060F42130310501F5C3A0D4A040
:10213000E5A0F6A04C295D296E297F2913C0233024
:10214000310581F02430310551F010C043A154A174
:1021500065A176A14F5F5F4F6F4F7F4F03C0823005
:102160009105C9F143A354A365A376A3019711F088
:1021700081E032C0EF0180916D04811116C07F01B2
:1021800022E0E20EF11CC7010E94BE018E899091EF
:102190007304981710F480937304E9E08E9FC001D4
:1021A0001124B70187559B4F05C0BF01645F7F4F66
:1021B0008AE894E00E946501E0916B04F0916C0460
:1021C0009E8986898917A0F60115110589F281E09B
:1021D000F801808301C080E0DF91CF911F910F91C2
:1021E000FF90EF90DF90CF900895EF92FF920F93C2
:1021F0001F93CF93DF93FC0127A130A582E090E0ED
:1022000090A787A383A194A1A5A1B6A10196A11D22
:10221000B11D83A394A3A5A3B6A32130310589F5ED
:102220008B01EF0180916D04811116C07F0122E0C6
:10223000E20EF11CC7010E94BE018E8990917304C9
:10224000981710F480937304E9E08E9FC001112465
:10225000B70187559B4F05C0BF01645F7F4F8AE878
:1022600094E00E946501E0916B04F0916C049E89FA
:102270008689891730F40115110519F081E0F801FC
:102280008083DF91CF911F910F91FF90EF90089580
:102290009B01AC0184E0220F331F441F551F8A9518
:1022A000D1F760E072E18AE790E00E94EF112150DF
:1022B00031093093C5002093C40088E08093C100A9
:1022C00086E08093C20008959091C00095FFFCCFF6
:1022D0008093C6000895CF93DF93EC018991882302
:1022E00019F00E946411FACFDF91CF910895CF9336
:1022F000C82F843638F064E60E94E311805D0E94A6
:10230000641102C08A3058F02AE08C2F622F0E949C
:10231000E3110E94E31180E3890F0E9464118C2F66
:102320006AE00E94E31180E3890FCF910C9464115D
:1023300060E875E280E090E00E9448110E94E101AF
:102340000E9413030E9453000E94110187ED91E047
:102350000E946B1140E061E081E00E94640590936F
:102360006A048093690481E00E94330690936804B4
:1023700080936704A12CB12CC12CD12CE12CF12C21
:1023800002E020E030E040E550E068EF71E088E0F6
:1023900092E00E94280801E020E030E040E550E0B3
:1023A0006CEF71E08FE592E00E94280820E030E0B9
:1023B00040E550E061E072E083EC92E00E94280882
:1023C0000E94820AFFCF991B79E004C0991F9617DB
:1023D00008F0961B881F7A95C9F780950895A1E2A9
:1023E0001A2EAA1BBB1BFD010DC0AA1FBB1FEE1F8F
:1023F000FF1FA217B307E407F50720F0A21BB30BDA
:10240000E40BF50B661F771F881F991F1A9469F755
:1024100060957095809590959B01AC01BD01CF01B1
:102420000895A29FB001B39FC001A39F700D811DAD
:102430001124911DB29F700D811D1124911D0895CD
:10244000FB01DC0102C001900D9241505040D8F7D1
:062450000895F894FFCF8F
:10245600FFFF5B42544E5D204F766572726964657C
:10246600204F4E2020E28094206D6F746F7220669C
:102476006F72636564204F46460D0A005B42544EF8
:102486005D204F76657272696465204F464620E28C
:1024960080942073656E736F7220696E20636F6E11
:1024A60074726F6C0D0A005B54454D505D20002020
:1024B600430054656D703A20002020286F766572BF
:1024C6007269646520616374697665290043204FEB
:1024D6005652004320202020005B4D4F544F525D42
:1024E6002052756E6E696E6720464F5257415244B0
:1024F6000D0A004D6F746F723A20464F5257415283
:10250600442020005B4D4F544F525D2053544F5092
:102516005045440D0A004D6F746F723A2053544F64
:10252600505045442020003D3D3D20467265655291
:10253600544F53204D6F746F7220436F6E74726FD9
:102546006C203D3D3D0D0A0042544E0054454D5011
:0A255600004D4F540049444C45006D
:00000001FF
